:020000020000FC
:040000000C940E004E
:040008000C944E0006
:100018000C944B0007E00AB90FE004B901E007B9F6
:1000280077276627A8950091600008610093600013
:1000380006E4009360000CE00093690002E00DBB49
:10004800789450FD11C003B106FF01C006C004FD3D
:1000580057D005FD48D061D0F4CF20FD51D021FD07
:100068005CD022FD40D0EDCF5BD070E060E050E086
:100078000091600006FD13D0A8950091600008610A
:100088000093600006E4009360007894DACFF89457
:1000980051E01895739511F4639518951895A895DE
:1000A8000091600008610093600000E00093600028
:1000B8000895089558985A98599A089558985998AB
:1000C8005A9A08955A985998589A08951FEA08D044
:1000D80008959FEF8FEF0E9474001A95D1F7089545
:1000E8000197F1F7089501E005B9F0DF02E005B9DD
:1000F800EDDF04E005B9EADF08E005B9E7DF0895B8
:1001080008E005B9E3DF04E005B9E0DF02E005B97E
:10011800DDDF01E005B9DADF089500E005B90895EB
:1001280032E340E07317640798F030EF40E073174C
:10013800640740F034E041E07317640730F0C2DF31
:1001480024E00895B7DF21E00895B8DF22E008959C
:10015800002705B90BB901E008B9A1DF01E003BF29
:1001680000913500006605BF0F7D05BF789488951E
:0A017800F894002708B903BF0895AA
:00000001FF
