:020000020000FC
:040000000C940E004E
:040008000C947300E1
:100018000C94700007E00AB90FE004B901E007B9D1
:1000280077276627A8950091600008610093600013
:1000380006E4009360000CE00093690002E00DBB49
:10004800789450FD21C003B1517006FF02C0526080
:1000580006C004FD79D005FD6AD083D0F2CF20FD1B
:1000680005C021FD7ED022FD07D0EBCFE1FF0AC0FD
:10007800E2FD6AD05CD0E5CFE1FF04C0E2FF64D0C6
:1000880056D0089561D0DDCF6FD051FD14D070E007
:1000980060E00FEF0A9550230091600006FD24D020
:1000A800A8950091600008610093600006E4009341
:1000B80060007894C6CFE1FF01D00895E0FF08C042
:1000C8007C176D0710F0E6600895E070E26008950F
:1000D800C72FD62F28600895F89451E01895739586
:1000E80011F4639518951895A8950091600008611A
:1000F8000093600000E000936000089558985A98B3
:10010800599A0895589859985A9A08955A98599802
:10011800589A08951FEA08D008959FEF8FEF0E941C
:1001280098001A95D1F708950197F1F7089501E01D
:1001380005B9F0DF02E005B9EDDF04E005B9EADF53
:1001480008E005B9E7DF089508E005B9E3DF04E052
:1001580005B9E0DF02E005B9DDDF01E005B9DADF66
:10016800089500E005B9089532E340E07317640785
:10017800B0F030EF40E07317640748F038E141E031
:100188007317640740F0C2DF287324600895B6DF50
:10019800287321600895B6DF287322600895002728
:1001A80005B90BB901E008B99FDF01E003BF009171
:1001B8003500006605BF0F7D05BF78948895F894D3
:0801C800002708B903BF0895E8
:00000001FF
