:020000020000FC
:040000000C940E004E
:040008000C9446000E
:100018000C94430007E00AB90FE004B97727662774
:10002800A8950091600008610093600006E40093C1
:10003800600004E00093690002E00DBB789450FD75
:100048000DC003B106FF01C008C020E7022304FD6C
:100058004AC005FD3BC054C0F2CFF1CF09B10260E0
:100068000BB970E060E050E0A8950091600008616D
:100078000093600006E4009360007894E0CFF89461
:1000880051E0189509B101600BB9739519F463959E
:1000980070E01895189566950EEA58985A98599AE6
:1000A8000895589859985A9A08955A985998589A64
:1000B80008951FEA08D008959FEF8FEF0E94670008
:1000C8001A95D1F708950197F1F7089501E005B958
:1000D800F0DF02E005B9EDDF04E005B9EADF08E08A
:1000E80005B9E7DFACCF08E005B9E3DF04E005B9FF
:1000F800E0DF02E005B9DDDF01E005B9DADF9FCF17
:0601080000E005B99CCFE8
:00000001FF
