:020000020000FC
:040000000C940E004E
:100018000C942D0007E00AB90FE004B900E400933E
:1000280060007894A89550FD0DC003B106FF01C08B
:1000380008C020E7022304FD35C005FD26C03FC0E7
:10004800F2CFF1CF09D050E000E40093600078943B
:10005800A895F89451E0189528982A98299A08950F
:10006800289829982A9A08952A982998289A0895C4
:100078001FEA08D008959FEF8FEF0E9446001A9557
:10008800D1F708950197F1F7089501E005B9F0DF78
:1000980002E005B9EDDF04E005B9EADF08E005B9DB
:1000A800E7DFC1CF08E005B9E3DF04E005B9E0DF29
:1000B80002E005B9DDDF01E005B9DADFB4CF00E021
:0400C80005B9B1CFF6
:00000001FF
