:020000020000FC
:040000000C940E004E
:040008000C945600FE
:100018000C94530007E00AB90FE004B901E007B9EE
:1000280077276627A8950091600008610093600013
:1000380006E4009360000CE00093690002E00DBB49
:10004800789450FD19C003B106FF01C006C004FD35
:100058005FD005FD50D069D0F4CF20FD59D021FDE7
:1000680064D022FD48D0EDCF24FD52D044D008956D
:1000780024FF4ED040D008955BD070E060E050E09F
:100088000091600006FD13D0A895009160000861FA
:100098000093600006E4009360007894D2CFF8944F
:1000A80051E01895739511F4639518951895A895CE
:1000B8000091600008610093600000E00093600018
:1000C8000895089558985A98599A0895589859989B
:1000D8005A9A08955A985998589A08951FEA08D034
:1000E80008959FEF8FEF0E947C001A95D1F708952D
:1000F8000197F1F7089501E005B9F0DF02E005B9CD
:10010800EDDF04E005B9EADF08E005B9E7DF0895A7
:1001180008E005B9E3DF04E005B9E0DF02E005B96E
:10012800DDDF01E005B9DADF089500E005B90895DB
:1001380032E340E073176407A8F030EF40E073172C
:10014800640740F038E141E07317640738F0C2DF14
:1001580024E00895B7DF287321600895B7DF287376
:1001680022600895002705B90BB901E008B99FDF9F
:1001780001E003BF00913500006605BF0F7D05BF94
:0E01880078948895F894002708B903BF08956D
:00000001FF
