:020000020000FC
:040000000C940E004E
:040008000C945C00F8
:100018000C94590007E00AB90FE004B9772766275E
:10002800A8950091600008610093600006E40093C1
:1000380060000CE00093690002E00DBB789405E0D5
:1000480003BF50FD23C003B106FF01C006C004FD75
:100058005AD005FD4BD064D0F4CF20FD54D021FDFB
:100068005FD022FD43D0EDCFA695A695A695A6957F
:10007800B1E0AB1B48D0B0E0BA1741F0F9CFB1E01E
:10008800AB1B34D0B0E0BA1709F0F2CF4CD070E017
:1000980060E050E0A895009160000861009360005E
:1000A80006E4009360007894CCCFF89451E018955A
:1000B800739511F463951895189558985A98599A04
:1000C8000895589859985A9A08955A985998589A44
:1000D80008951FEA08D008959FEF8FEF0E947700D8
:1000E8001A95D1F708950197F1F7089501E005B938
:1000F800F0DF02E005B9EDDF04E005B9EADF08E06A
:1001080005B9E7DF089508E005B9E3DF04E005B9BC
:10011800E0DF02E005B9DDDF01E005B9DADF0895C7
:1001280000E005B9089530EF40E07317640750F018
:1001380034E041E07317640750F0C7DF24E0A0EF14
:10014800A71B0895BADF21E0A0EFA71B0895B9DF28
:0401580022E0089504
:00000001FF
