:020000020000FC
:080000000C940E000C943B006F
:100018000C94390007E00AB90FE004B9A8950091DB
:10002800600008610093600006E400936000789423
:1000380050FD0DC003B106FF01C008C020E7022330
:1000480004FD3CC005FD2DC046C0F2CFF1CF10D055
:1000580050E0F894A8950091600008610093600052
:1000680006E4009360007894E3CF51E01895189562
:1000780058985A98599A0895589859985A9A089594
:100088005A985998589A08951FEA08D008959FEFEA
:100098008FEF0E9452001A95D1F708950197F1F752
:1000A800089501E005B9F0DF02E005B9EDDF04E0ED
:1000B80005B9EADF08E005B9E7DFBACF08E005B916
:1000C800E3DF04E005B9E0DF02E005B9DDDF01E0C8
:0C00D80005B9DADFADCF00E005B9AACF12
:00000001FF
