:020000020000FC
:0200000001C03D
:1000040007E00AB90FE004B903B120E7022304FDB5
:100014001EC005FD0FC006FD27C0F6CF28982A98FC
:10002400299A0895289829982A9A08952A98299807
:10003400289A089501E005B91ED002E005B91BD045
:1000440004E005B918D008E005B915D0DDCF08E003
:1000540005B911D004E005B90ED002E005B90BD002
:1000640001E005B908D0D0CF04E005B904D000E020
:1000740005B901D0C9CF1FEA08D008959FEF8FEFCB
:100084000E9447001A95D1F708950197F1F7089552
:00000001FF
