:020000020000FC
:040000000C940E004E
:040008000C94430011
:100018000C94400007E00AB90FE004B97727A895C7
:100028000091600008610093600006E4009360009E
:1000380004E00093690002E00DBB789450FD0DC008
:1000480003B106FF01C008C020E7022304FD43C036
:1000580005FD34C04DC0F2CFF1CF09B102600BB934
:1000680050E0A8950091600008610093600006E4E4
:10007800009360007894E2CFF89451E0189501E07D
:10008800700F09B101600BB9189558985A98599A88
:100098000895589859985A9A08955A985998589A74
:1000A80008951FEA08D008959FEF8FEF0E945F0020
:1000B8001A95D1F708950197F1F7089501E005B968
:1000C800F0DF02E005B9EDDF04E005B9EADF08E09A
:1000D80005B9E7DFB3CF08E005B9E3DF04E005B908
:1000E800E0DF02E005B9DDDF01E005B9DADFA6CF20
:0600F80000E005B9A3CFF2
:00000001FF
