:020000020000FC
:040000000C940E004E
:040008000C94440010
:100018000C94410007E00AB90FE004B97727662776
:10002800A8950091600008610093600006E40093C1
:1000380060000CE00093690002E00DBB789450FD6D
:100048000DC003B106FF01C008C020E7022304FD6C
:1000580042C005FD33C04CC0F2CFF1CF4CD070E0A8
:1000680060E050E0A895009160000861009360008E
:1000780006E4009360007894E2CFF89451E0189574
:10008800739511F463951895189558985A98599A34
:100098000895589859985A9A08955A985998589A74
:1000A80008951FEA08D008959FEF8FEF0E945F0020
:1000B8001A95D1F708950197F1F7089501E005B968
:1000C800F0DF02E005B9EDDF04E005B9EADF08E09A
:1000D80005B9E7DFB4CF08E005B9E3DF04E005B907
:1000E800E0DF02E005B9DDDF01E005B9DADFA7CF1F
:1000F80000E005B9A4CF30EF40E07317640738F08B
:1001080034E041E07317640720F0C7DF0895BDDFCE
:060118000895BFDF089509
:00000001FF
