:020000020000FC
:020000000CC032
:100018001DC007E00AB90FE004B900E400936000CE
:10002800789450FD0DC003B106FF01C008C020E759
:10003800022304FD1BC005FD0CC025C0F2CFF1CF83
:1000480025D050E000E4009360007894F89451E0E3
:10005800189501E005B926D002E005B923D004E0DF
:1000680005B920D008E005B91DD0DBCF08E005B9F7
:1000780019D004E005B916D002E005B913D001E0A3
:1000880005B910D0CECF00E005B9CBCF28982A9873
:10009800299A0895289829982A9A08952A98299893
:1000A800289A08951FEA08D008959FEF8FEF0E94BD
:0E00B80060001A95D1F708950197F1F70895A9
:00000001FF
