:020000020000FC
:040000000C940E004E
:040008000C947100E3
:100018000C946E0007E20AB90FE004B90FE007B9C3
:1000280077276627A8950091600008610093600013
:1000380006E4009360000CE00093690002E00DBB49
:10004800789450FD21C003B1517006FF02C0526080
:1000580006C004FD77D005FD68D081D0F2CF20FD21
:1000680005C021FD7CD022FD07D0EBCFE1FF0AC0FF
:10007800E2FD08C05AD0E5CFE1FF04C0E2FF02C0AC
:1000880054D008955FD0DDCFBDD051FD12D070E0BF
:1000980060E052700091600006FD24D0A8950091A0
:1000A800600008610093600006E4009360007894A3
:1000B800C8CFE1FF01D00895E0FF08C07C176D07A5
:1000C80010F0E6600895E070E2600895C72FD62F1B
:1000D800E1600895F89451601895739511F463954B
:1000E80018951895A8950091600008610093600024
:1000F80000E000936000089558985A98599A089516
:10010800589859985A9A08955A985998589A089503
:100118001FEA08D008959FEF8FEF0E9496001A9566
:10012800D1F708950197F1F7089501E005B9F0DFD7
:1001380002E005B9EDDF04E005B9EADF08E005B93A
:10014800E7DF089508E005B9E3DF04E005B9E0DF7B
:1001580002E005B9DDDF01E005B9DADF089500E066
:1001680005B908957317640768F009E110E0300FC6
:10017800411F38E141E07317640740F0C5DF287379
:1001880024600895B9DF287321600895B9DF2873C2
:1001980022600895002705B908B900E20BB9A2DF6B
:1001A80001E003BF00913500006605BF0F7D05BF64
:1001B80078948895F89400270BB903BF08950FE049
:1001C8001FD0089501E01CD0089500E019D00895CB
:1001D8000CE016D008950AE013D0089508E010D076
:1001E800089507E00DD0089503E00AD0089506E0C9
:1001F80007D0089504E004D0089505E001D00895DB
:1002080008B9089536E440E07317640718F236E930
:1002180040E07317640760F03CE241E0731764073D
:1002280088F0F2FF19D0DDDF30E441E09BDF08956C
:10023800F0FF05D0E2DF3FE540E094DF0895EE27C8
:10024800F1E00895F1FF05D0CFDF30EF40E08ADF1D
:0E0258000895EE27F2E00895EE27F4E00895F1
:00000001FF
