:020000020000FC
:040000000C940E004E
:040008000C9448000C
:100018000C94450007E00AB90FE004B97727662772
:10002800A8950091600008610093600006E40093C1
:1000380060000CE00093690002E00DBB789450FD6D
:1000480011C003B106FF01C006C004FD48D005FD7C
:1000580039D052D0F4CF20FD42D021FD4DD022FD21
:1000680031D0EDCF4CD070E060E050E0A895009121
:10007800600008610093600006E4009360007894D3
:10008800DECFF89451E01895739511F4639518959F
:10009800189558985A98599A0895589859985A9A64
:1000A80008955A985998589A08951FEA08D00895BB
:1000B8009FEF8FEF0E9463001A95D1F7089501977B
:1000C800F1F7089501E005B9F0DF02E005B9EDDFC9
:1000D80004E005B9EADF08E005B9E7DF089508E0BC
:1000E80005B9E3DF04E005B9E0DF02E005B9DDDFCB
:1000F80001E005B9DADF089500E005B9089530EFA9
:1001080040E07317640740F034E041E07317640778
:1001180030F0C7DF24E00895BCDF21E00895BDDF9B
:0401280022E0089534
:00000001FF
