:020000020000FC
:040000000C940E004E
:040008000C947900DB
:100018000C94760007E20AB90FE004B90FE007B9BB
:1000280077276627A8950091600008610093600013
:1000380005E4009360000CE00093690002E00DBB4A
:10004800789450FD29C003B1517019B114FF02C052
:10005800526006C004FD7ED005FD6FD088D0F1CF78
:1000680020FD05C021FD83D022FD06D0EACFE1FFA7
:1000780009C0E2FD09C00CC0E1FF04C0E2FF04C0F2
:1000880007C0089567D0DDCF3A9564D0E9F7D9CF96
:100098003A9553D0E9F7D5CFD4D051FD12D070E0BE
:1000A80060E052700091600006FD24D0A895009190
:1000B800600008610093600005E400936000789494
:1000C800C0CFE1FF01D00895E0FF08C07C176D079D
:1000D80010F0E6600895E070E2600895C72FD62F0B
:1000E800E1600895F89451601895739511F463953B
:1000F80018951895A8950091600008610093600014
:1001080000E000936000089558985A98599A089505
:10011800589859985A9A08955A985998589A0895F3
:100128001FEA08D008959FEF8FEF0E949E001A954E
:10013800D1F708950197F1F7089501E005B9F0DFC7
:1001480002E005B9EDDF04E005B9EADF08E005B92A
:10015800E7DF089508E005B9E3DF04E005B9E0DF6B
:1001680002E005B9DDDF01E005B9DADF089500E056
:1001780005B908957317640790F009E110E0300F8E
:10018800411F7317640790F0C7DF28732460072F97
:10019800162F031B140B302F412F0CD00895B4DFFA
:1001A80028732160371B460B05D00895B1DF2873EB
:1001B8002260089536953695369531F004E030176B
:1001C80010F034E00895089531E00895002705B946
:1001D80008B900E20BB919B114FF08958BDF01E0EB
:1001E80003BF00913500006605BF0F7D05BF7894F9
:1001F8008895F89400270BB903BF08950FE01FD026
:10020800089501E01CD0089500E019D008950CE08D
:1002180016D008950AE013D0089508E010D0089584
:1002280007E00DD0089503E00AD0089506E007D04E
:10023800089504E004D0089505E001D0089508B9B0
:10024800089536E440E07317640700F236E940E0A9
:100258007317640760F03CE241E07317640788F0A5
:10026800F2FF19D0DDDF30E441E084DF0895F0FFCC
:1002780005D0E2DF3FE540E07DDF0895EE27F1E0BD
:100288000895F1FF05D0CFDF30EF40E073DF089528
:0C029800EE27F2E00895EE27F4E0089550
:00000001FF
